:100000000C942E000C94A7010C94A7010C94A7014A
:100010000C94A7010C94A7010C94A7010C94A701C0
:100020000C94A7010C94A7010C94A7010C94A701B0
:100030000C94A7010C94A7010C94A7010C94A701A0
:100040000C94A7010C94A7010C94A7010C94A70190
:100050000C94A7010060007000035C0011241FBE17
:10006000CFE5D8E0DEBFCDBFE4E5F0E040E017C06B
:10007000B591A59135912591059107FD0CC09591FC
:100080008591EF01F92FE82F05900D92A217B30784
:10009000D9F7FE0104C01D92A217B307E1F7EB35B3
:1000A000F40731F70E9485010C949001F894FFCF7A
:1000B00098B3926098BBEFE9FFE03197F1F700C089
:1000C000000098B39B7F98BBEFE9FFE03197F1F711
:1000D00000C000009BB39F70282F207F922B9BBBFA
:1000E000EFE9FFE03197F1F700C0000098B3977F88
:1000F00098BBEFE9FFE03197F1F700C0000098B33B
:10010000986098BBEFE9FFE03197F1F700C000007D
:1001100098B3926098BBEFE9FFE03197F1F700C028
:10012000000098B39B7F98BBEFE9FFE03197F1F7B0
:1001300000C000002BB3F0E18F9FC0011124922F6B
:100140009F70892B8BBB8FE99FE00197F1F700C06F
:10015000000088B3877F88BBEFE9FFE03197F1F7B4
:0C01600000C0000088B3886088BB0895D0
:10016C0088B38B7F88BB8FE99FE00197F1F700C0C4
:10017C00000088B38D7F88BB8FE99FE00197F1F772
:10018C0000C000008BB38F70962F907F892B8BBB98
:10019C008FE99FE00197F1F700C0000088B3877FDB
:1001AC0088BB8FE99FE00197F1F700C0000088B38E
:1001BC00886088BB8FEC97E00197F1F700C00000D6
:1001CC0088B38D7F88BB8FE99FE00197F1F700C062
:1001DC00000088B38B7F88BB8FE99FE00197F1F714
:1001EC0000C000008BB38F706295607F682B6BBB77
:1001FC008FE99FE00197F1F700C0000088B3877F7B
:10020C0088BB8FEC97E00197F1F700C0000088B332
:06021C00886088BB089514
:1002220040E050E03AC085B3806F85BB25B3BA0188
:100232006C5F7F4F81E090E002C0880F991F6A9542
:10024200E2F78095822385BB20E030E021C083B3B2
:1002520090E0022E02C0959587950A94E2F780FD00
:1002620015C083B390E0022E02C0959587950A943B
:10027200E2F780FFF6CF220F331F220F331F205ADF
:100282003F4FF901E40FF51F808108952F5F3F4F23
:1002920024303105E4F24F5F5F4F443051051CF2C8
:0402A2008EE4089549
:1002A6002FEF89EF90E0215080409040E1F700C0A9
:1002B60000008FEF8ABB87B38E6087BB88B3817FD0
:1002C60088BB8FE39CE90197F1F700C0000062E369
:1002D60070E080E090E00E94B60068E270E080E0A6
:1002E60090E00E94B6006FE070E080E090E00E942F
:1002F600B6000E949B0166E070E080E090E00E94FC
:04030600B6000895A0
:10030A000E94A2010E9453010E9411018E34E1F35E
:06031A000E945800F9CF1B
:10032000EC010E94AC010E94AB01CE010E94AD0124
:06033000CE010E94A901AC
:0E03360061E070E080E090E00E94B600089563
:0A03440080EF84BB8FEF85BB0895A6
:04034E000C9400000B
:040352000E945600AF
:02035600089508
:02035800089506
:02035A00089504
:10035C003738392F343536583132332D20303D2B48
:00000001FF
