:100000000C942E000C9469030C9469030C946903FE
:100010000C9469030C9469030C9469030C946903B0
:100020000C9469030C9469030C9469030C946903A0
:100030000C9469030C9469030C9469030C94690390
:100040000C9469030C9469030C9469030C94690380
:100050000C946903006000680006E00011241FBED4
:10006000CFE5D8E0DEBFCDBFE4E5F0E040E017C06B
:10007000B591A59135912591059107FD0CC09591FC
:100080008591EF01F92FE82F05900D92A217B30784
:10009000D9F7FE0104C01D92A217B307E1F7EB35B3
:1000A000F40731F70E94F9020C942503F894FFCF6E
:1000B0004F925F926F927F928F929F92AF92BF9278
:1000C000CF92DF92EF92FF92CF93DF9300D000D0D8
:1000D000CDB7DEB76B017C0127E1F694E794D794A6
:1000E000C7942A95D1F796013327263931050CF0AC
:1000F00067C06B017C014B015C0197FF04C0B7FA3C
:10010000B094B7F8B0942B013C012E373105A4F41C
:1001100020E030E040E05BE4C501B4010E94380318
:1001200069837A838B839C8320E030E0A901C3013B
:10013000B2010E94620344C020E030E040E05BE492
:10014000C501B4010E94380320E030E040E05BE4E8
:100150000E943703A50194010E9437032B013C0143
:1001600020E030E040E05FE30E945D0318166CF48D
:10017000A3019201C501B4010E94380320E030E0E0
:1001800040E85FE30E94370319C020E030E040E020
:100190005FEBC301B2010E945803A301920118163C
:1001A0004CF0C501B4010E94380320E030E040E883
:1001B0005FE302C0C501B4010E943803F7FC905808
:1001C0000F900F900F900F90DF91CF91FF90EF90D5
:1001D000DF90CF90BF90AF909F908F907F906F9067
:0601E0005F904F900895AE
:1001E6000FC00E943E0338F00E94450320F095237D
:1001F60011F00C9452030C94660311240C943103F1
:100206000E94B50270F3959FC1F3950F50E0551FFC
:10021600629FF001729FBB27F00DB11D639FAA2755
:10022600F00DB11DAA1F649F6627B00DA11D661FA4
:10023600829F2227B00DA11D621F739FB00DA11DC5
:10024600621F839FA00D611D221F749F3327A00D7F
:10025600611D231F849F600D211D822F762F6A2F1B
:1002660011249F5750409AF0F1F088234AF0EE0F80
:10027600FF1FBB1F661F771F881F91505040A9F7AD
:100286009E3F510580F00C9452030C9431035F3F5E
:10029600E4F3983ED4F3869577956795B795F795E9
:1002A600E7959F5FC1F7FE2B880F911D9695879561
:0402B60097F9089517
:1002BA0011C00E943E0338F00E94450320F039F431
:1002CA009F3F19F426F40C9466030EF4E095E7FBBD
:1002DA000C945203E92F0E94B50258F3BA17620729
:1002EA0073078407950720F079F4A6F50C94300378
:1002FA000EF4E0950B2EBA2FA02D0B01B901900137
:10030A000C01CA01A0011124FF27591B99F0593F7A
:10031A0050F4503E68F11A16F040A22F232F342FC2
:10032A004427585FF3CF469537952795A795F04010
:10033A005395C9F77EF41F16BA0B620B730B840B25
:10034A00BAF09150A1F0FF0FBB1F661F771F881FDD
:10035A00C2F70EC0BA0F621F731F841F48F4879535
:10036A0077956795B795F7959E3F08F0B0CF939527
:0E037A00880F08F09927EE0F97958795089544
:10038800FC0180B5806880BD20B5908130E4939FE2
:10039800C0011124822B80BD20B5918130E1939F4B
:1003A800C0011124822B80BD80B59281292F30E0B5
:1003B800220F331F220F331F220F331F282B20BD7C
:1003C80080B5897F80BD80B59381292F30E0220FC9
:1003D800331F282B20BD8381873019F48AB18460AC
:1003E8008AB984819581A681B781880F991FAA1F30
:1003F800BB1F880F991FAA1FBB1F9C01AD01220FAD
:10040800331F441F551F220F331F441F551F60E021
:1004180072E18AE790E00E94D702CA01B9010E94FE
:1004280025020E9458000E9462026150710969B950
:1004380080B580BD80B5872B80BD8AB188618AB9B7
:02044800089515
:10044A00E89409C097FB3EF4909580957095619564
:10045A007F4F8F4F9F4F9923A9F0F92F96E9BB271A
:10046A009395F695879577956795B795F111F8CF96
:10047A00FAF4BB0F11F460FF1BC06F5F7F4F8F4F01
:10048A009F4F16C0882311F096E911C0772321F0F7
:10049A009EE8872F762F05C0662371F096E8862F8F
:1004AA0070E060E02AF09A95660F771F881FDAF7E6
:0A04BA00880F9695879597F908952D
:1004C4000E94BD0288F09F5798F0B92F9927B75121
:1004D400B0F0E1F0660F771F881F991F1AF0BA95E4
:1004E400C9F714C0B13091F00E943003B1E008950F
:1004F4000C943003672F782F8827B85F39F0B93F01
:10050400CCF3869577956795B395D9F73EF4909596
:0E0514008095709561957F4F8F4F9F4F089592
:10052200990F0008550FAA0BE0E8FEEF1616170602
:10053200E807F907C0F012161306E407F50798F06A
:10054200621B730B840B950B39F40A2661F0232B83
:10055200242B252B21F408950A2609F4A140A695FF
:080562008FEF811D811D08953A
:10056A0057FD9058440F551F59F05F3F71F047955A
:10057A00880F97FB991F61F09F3F79F0879508953F
:10058A00121613061406551FF2CF4695F1DF08C05E
:10059A00161617061806991FF1CF8695710561057B
:0405AA000894089514
:1005AE00A1E21A2EAA1BBB1BFD010DC0AA1FBB1F69
:1005BE00EE1FFF1FA217B307E407F50720F0A21BDB
:1005CE00B30BE40BF50B661F771F881F991F1A9448
:1005DE0069F760957095809590959B01AC01BD0172
:0405EE00CF0108959C
:1005F200CF93DF93CDB7DEB728970FB6F894DEBF5F
:100602000FBECDBF88E0E0E6F0E0DE01119601907A
:100612000D928A95E1F7CE0101960E94C40181E60E
:060622000E944C03FFCF13
:10062800092E0394000C11F4882352F0BB0F40F4F8
:10063800BF2B11F460FF04C06F5F7F4F8F4F9F4F38
:02064800089513
:10064A00EC010E946E030E946D03CE010E946F03AB
:06065A00CE010E946B03BB
:0E066000E894BB2766277727CB0197F908950A
:0E066E005058BB27AA270E945D010C9414036C
:0E067C0000240A94161617061806090608959B
:0E068A0000240A94121613061406050608959D
:0C0698005D9BFECF8CB95E9BFECF0895E9
:0C06A40097F99F6780E870E060E008951F
:0A06B0000E94910208F481E0089511
:0A06BA000E94910208F48FEF0895EA
:0806C4000E94F3000C941403E2
:0606CC009FEF80EC089591
:0406D2000C94000084
:0406D6000E94560028
:0206DA00089581
:0206DC0008957F
:0206DE0008957D
:0806E00000000003802500006A
:00000001FF
