:100000000C942A000C946A000C946A000C946A0008
:100010000C946A000C946A000C946A000C946A00B8
:100020000C946A000C946A000C946A000C946A00A8
:100030000C946A000C946A000C946A000C946A0098
:100040000C946A000C946A000C946A000C946A0088
:100050000C946A0011241FBECFE5D8E0DEBFCDBFEF
:0C0060000E944F000C945A00F894FFCF4F
:10006C0025E030E012C042B381E090E0022E02C0E5
:10007C00880F991F0A94E2F7942F982B92BB92B396
:10008C008095892382BB2F5F3F4F283031055CF36D
:02009C000895C5
:10009E000E9465000E94360082B3806182BB82B3EB
:0600AE008F7E82BBF7CF3C
:1000B400EC010E946F000E946E00CE010E9470004D
:0600C400CE010E946C0059
:0A00CA0081B3806F81BB12BA089564
:0400D4000C94000088
:0400D8000E9434004E
:0200DC00089585
:0200DE00089583
:0200E000089581
:00000001FF
